{
  "_format": "hh-sol-artifact-1",
  "contractName": "RentalAgreement",
  "sourceName": "contracts/RentalAgreement.sol",
  "abi": [
    {
      "inputs": [
        {
          "internalType": "address",
          "name": "_tenant",
          "type": "address"
        },
        {
          "internalType": "uint256",
          "name": "_rentAmount",
          "type": "uint256"
        },
        {
          "internalType": "uint256",
          "name": "_leaseStart",
          "type": "uint256"
        },
        {
          "internalType": "uint256",
          "name": "_leaseEnd",
          "type": "uint256"
        },
        {
          "internalType": "uint256",
          "name": "_paymentInterval",
          "type": "uint256"
        }
      ],
      "stateMutability": "nonpayable",
      "type": "constructor"
    },
    {
      "anonymous": false,
      "inputs": [
        {
          "indexed": false,
          "internalType": "address",
          "name": "landlord",
          "type": "address"
        },
        {
          "indexed": false,
          "internalType": "address",
          "name": "tenant",
          "type": "address"
        },
        {
          "indexed": false,
          "internalType": "uint256",
          "name": "rentAmount",
          "type": "uint256"
        },
        {
          "indexed": false,
          "internalType": "uint256",
          "name": "leaseStart",
          "type": "uint256"
        },
        {
          "indexed": false,
          "internalType": "uint256",
          "name": "leaseEnd",
          "type": "uint256"
        }
      ],
      "name": "LeaseCreated",
      "type": "event"
    },
    {
      "anonymous": false,
      "inputs": [
        {
          "indexed": true,
          "internalType": "address",
          "name": "tenant",
          "type": "address"
        },
        {
          "indexed": false,
          "internalType": "uint256",
          "name": "amount",
          "type": "uint256"
        },
        {
          "indexed": false,
          "internalType": "uint256",
          "name": "period",
          "type": "uint256"
        },
        {
          "indexed": false,
          "internalType": "uint256",
          "name": "timestamp",
          "type": "uint256"
        }
      ],
      "name": "RentPaid",
      "type": "event"
    },
    {
      "inputs": [],
      "name": "getCurrentPeriod",
      "outputs": [
        {
          "internalType": "uint256",
          "name": "",
          "type": "uint256"
        }
      ],
      "stateMutability": "view",
      "type": "function"
    },
    {
      "inputs": [],
      "name": "getDetails",
      "outputs": [
        {
          "internalType": "address",
          "name": "",
          "type": "address"
        },
        {
          "internalType": "address",
          "name": "",
          "type": "address"
        },
        {
          "internalType": "uint256",
          "name": "",
          "type": "uint256"
        },
        {
          "internalType": "uint256",
          "name": "",
          "type": "uint256"
        },
        {
          "internalType": "uint256",
          "name": "",
          "type": "uint256"
        },
        {
          "internalType": "uint256",
          "name": "",
          "type": "uint256"
        }
      ],
      "stateMutability": "view",
      "type": "function"
    },
    {
      "inputs": [
        {
          "internalType": "uint256",
          "name": "period",
          "type": "uint256"
        }
      ],
      "name": "isPaid",
      "outputs": [
        {
          "internalType": "bool",
          "name": "",
          "type": "bool"
        }
      ],
      "stateMutability": "view",
      "type": "function"
    },
    {
      "inputs": [],
      "name": "landlord",
      "outputs": [
        {
          "internalType": "address",
          "name": "",
          "type": "address"
        }
      ],
      "stateMutability": "view",
      "type": "function"
    },
    {
      "inputs": [],
      "name": "leaseEnd",
      "outputs": [
        {
          "internalType": "uint256",
          "name": "",
          "type": "uint256"
        }
      ],
      "stateMutability": "view",
      "type": "function"
    },
    {
      "inputs": [],
      "name": "leaseStart",
      "outputs": [
        {
          "internalType": "uint256",
          "name": "",
          "type": "uint256"
        }
      ],
      "stateMutability": "view",
      "type": "function"
    },
    {
      "inputs": [
        {
          "internalType": "uint256",
          "name": "",
          "type": "uint256"
        }
      ],
      "name": "paidPeriods",
      "outputs": [
        {
          "internalType": "bool",
          "name": "",
          "type": "bool"
        }
      ],
      "stateMutability": "view",
      "type": "function"
    },
    {
      "inputs": [],
      "name": "payRent",
      "outputs": [],
      "stateMutability": "payable",
      "type": "function"
    },
    {
      "inputs": [],
      "name": "paymentInterval",
      "outputs": [
        {
          "internalType": "uint256",
          "name": "",
          "type": "uint256"
        }
      ],
      "stateMutability": "view",
      "type": "function"
    },
    {
      "inputs": [],
      "name": "rentAmount",
      "outputs": [
        {
          "internalType": "uint256",
          "name": "",
          "type": "uint256"
        }
      ],
      "stateMutability": "view",
      "type": "function"
    },
    {
      "inputs": [],
      "name": "tenant",
      "outputs": [
        {
          "internalType": "address",
          "name": "",
          "type": "address"
        }
      ],
      "stateMutability": "view",
      "type": "function"
    },
    {
      "inputs": [],
      "name": "totalPaid",
      "outputs": [
        {
          "internalType": "uint256",
          "name": "",
          "type": "uint256"
        }
      ],
      "stateMutability": "view",
      "type": "function"
    }
  ],
  "bytecode": "0x60806040523480156200001157600080fd5b5060405162000f3938038062000f3983398181016040528101906200003791906200020d565b336000806101000a81548173ffffffffffffffffffffffffffffffffffffffff021916908373ffffffffffffffffffffffffffffffffffffffff16021790555084600160006101000a81548173ffffffffffffffffffffffffffffffffffffffff021916908373ffffffffffffffffffffffffffffffffffffffff160217905550836002819055508260038190555081600481905550806005819055507fd7b71e08701e3f1821e07b482038b18e13a6107e63665dd46c346e546546254560008054906101000a900473ffffffffffffffffffffffffffffffffffffffff16600160009054906101000a900473ffffffffffffffffffffffffffffffffffffffff1660025460035460045460405162000155959493929190620002b7565b60405180910390a1505050505062000314565b600080fd5b600073ffffffffffffffffffffffffffffffffffffffff82169050919050565b60006200019a826200016d565b9050919050565b620001ac816200018d565b8114620001b857600080fd5b50565b600081519050620001cc81620001a1565b92915050565b6000819050919050565b620001e781620001d2565b8114620001f357600080fd5b50565b6000815190506200020781620001dc565b92915050565b600080600080600060a086880312156200022c576200022b62000168565b5b60006200023c88828901620001bb565b95505060206200024f88828901620001f6565b94505060406200026288828901620001f6565b93505060606200027588828901620001f6565b92505060806200028888828901620001f6565b9150509295509295909350565b620002a0816200018d565b82525050565b620002b181620001d2565b82525050565b600060a082019050620002ce600083018862000295565b620002dd602083018762000295565b620002ec6040830186620002a6565b620002fb6060830185620002a6565b6200030a6080830184620002a6565b9695505050505050565b610c1580620003246000396000f3fe6080604052600436106100a75760003560e01c8063adf0779111610064578063adf077911461019f578063cd392a83146101ca578063dc1997ea14610207578063e7b0f66614610232578063f8ef1e131461025d578063fbbf93a014610288576100a7565b8063086146d2146100ac5780630cc63ea4146100d75780631cc1cf46146101025780635d5e96171461012d57806387822b621461016a578063a709c4fe14610195575b600080fd5b3480156100b857600080fd5b506100c16102b8565b6040516100ce91906106f2565b60405180910390f35b3480156100e357600080fd5b506100ec6102ee565b6040516100f991906106f2565b60405180910390f35b34801561010e57600080fd5b506101176102f4565b60405161012491906106f2565b60405180910390f35b34801561013957600080fd5b50610154600480360381019061014f919061073e565b6102fa565b6040516101619190610786565b60405180910390f35b34801561017657600080fd5b5061017f61031a565b60405161018c91906106f2565b60405180910390f35b61019d610320565b005b3480156101ab57600080fd5b506101b46105ec565b6040516101c191906107e2565b60405180910390f35b3480156101d657600080fd5b506101f160048036038101906101ec919061073e565b610612565b6040516101fe9190610786565b60405180910390f35b34801561021357600080fd5b5061021c61063c565b60405161022991906107e2565b60405180910390f35b34801561023e57600080fd5b50610247610660565b60405161025491906106f2565b60405180910390f35b34801561026957600080fd5b50610272610666565b60405161027f91906106f2565b60405180910390f35b34801561029457600080fd5b5061029d61066c565b6040516102af969594939291906107fd565b60405180910390f35b60006003544210156102cd57600090506102eb565b600554600354426102de919061088d565b6102e891906108f0565b90505b90565b60045481565b60055481565b60076020528060005260406000206000915054906101000a900460ff1681565b60035481565b600160009054906101000a900473ffffffffffffffffffffffffffffffffffffffff1673ffffffffffffffffffffffffffffffffffffffff163373ffffffffffffffffffffffffffffffffffffffff16146103b0576040517f08c379a00000000000000000000000000000000000000000000000000000000081526004016103a79061097e565b60405180910390fd5b6003544210156103f5576040517f08c379a00000000000000000000000000000000000000000000000000000000081526004016103ec906109ea565b60405180910390fd5b60045442111561043a576040517f08c379a000000000000000000000000000000000000000000000000000000000815260040161043190610a56565b60405180910390fd5b600254341461047e576040517f08c379a000000000000000000000000000000000000000000000000000000000815260040161047590610ac2565b60405180910390fd5b60006104886102b8565b90506007600082815260200190815260200160002060009054906101000a900460ff16156104eb576040517f08c379a00000000000000000000000000000000000000000000000000000000081526004016104e290610b54565b60405180910390fd5b60016007600083815260200190815260200160002060006101000a81548160ff02191690831515021790555034600660008282546105299190610b74565b9250508190555060008054906101000a900473ffffffffffffffffffffffffffffffffffffffff1673ffffffffffffffffffffffffffffffffffffffff166108fc349081150290604051600060405180830381858888f19350505050158015610596573d6000803e3d6000fd5b503373ffffffffffffffffffffffffffffffffffffffff167f2d2423890bc33b8290b6bf4c590927cc8a367ef6c70744a602984e45a4bf11773483426040516105e193929190610ba8565b60405180910390a250565b600160009054906101000a900473ffffffffffffffffffffffffffffffffffffffff1681565b60006007600083815260200190815260200160002060009054906101000a900460ff169050919050565b60008054906101000a900473ffffffffffffffffffffffffffffffffffffffff1681565b60065481565b60025481565b60008060008060008060008054906101000a900473ffffffffffffffffffffffffffffffffffffffff16600160009054906101000a900473ffffffffffffffffffffffffffffffffffffffff16600254600354600454600654955095509550955095509550909192939495565b6000819050919050565b6106ec816106d9565b82525050565b600060208201905061070760008301846106e3565b92915050565b600080fd5b61071b816106d9565b811461072657600080fd5b50565b60008135905061073881610712565b92915050565b6000602082840312156107545761075361070d565b5b600061076284828501610729565b91505092915050565b60008115159050919050565b6107808161076b565b82525050565b600060208201905061079b6000830184610777565b92915050565b600073ffffffffffffffffffffffffffffffffffffffff82169050919050565b60006107cc826107a1565b9050919050565b6107dc816107c1565b82525050565b60006020820190506107f760008301846107d3565b92915050565b600060c08201905061081260008301896107d3565b61081f60208301886107d3565b61082c60408301876106e3565b61083960608301866106e3565b61084660808301856106e3565b61085360a08301846106e3565b979650505050505050565b7f4e487b7100000000000000000000000000000000000000000000000000000000600052601160045260246000fd5b6000610898826106d9565b91506108a3836106d9565b92508282039050818111156108bb576108ba61085e565b5b92915050565b7f4e487b7100000000000000000000000000000000000000000000000000000000600052601260045260246000fd5b60006108fb826106d9565b9150610906836106d9565b925082610916576109156108c1565b5b828204905092915050565b600082825260208201905092915050565b7f4f6e6c792074656e616e7420616c6c6f77656400000000000000000000000000600082015250565b6000610968601383610921565b915061097382610932565b602082019050919050565b600060208201905081810360008301526109978161095b565b9050919050565b7f4c65617365206e6f742073746172746564000000000000000000000000000000600082015250565b60006109d4601183610921565b91506109df8261099e565b602082019050919050565b60006020820190508181036000830152610a03816109c7565b9050919050565b7f4c6561736520656e646564000000000000000000000000000000000000000000600082015250565b6000610a40600b83610921565b9150610a4b82610a0a565b602082019050919050565b60006020820190508181036000830152610a6f81610a33565b9050919050565b7f496e636f72726563742072656e7420616d6f756e740000000000000000000000600082015250565b6000610aac601583610921565b9150610ab782610a76565b602082019050919050565b60006020820190508181036000830152610adb81610a9f565b9050919050565b7f52656e7420616c7265616479207061696420666f72207468697320706572696f60008201527f6400000000000000000000000000000000000000000000000000000000000000602082015250565b6000610b3e602183610921565b9150610b4982610ae2565b604082019050919050565b60006020820190508181036000830152610b6d81610b31565b9050919050565b6000610b7f826106d9565b9150610b8a836106d9565b9250828201905080821115610ba257610ba161085e565b5b92915050565b6000606082019050610bbd60008301866106e3565b610bca60208301856106e3565b610bd760408301846106e3565b94935050505056fea26469706673582212202646b3308a65700ed45ddedb9a1f3a04f492106c9c74dfec4ce692fce98ab39464736f6c63430008140033",
  "linkReferences": {},
  "deployedLinkReferences": {}
}